{
  "contractName": "EternalStorage",
  "abi": [
    {
      "constant": true,
      "inputs": [],
      "name": "totalAdminsMapping",
      "outputs": [
        {
          "name": "",
          "type": "uint256"
        }
      ],
      "payable": false,
      "stateMutability": "view",
      "type": "function"
    },
    {
      "constant": false,
      "inputs": [
        {
          "name": "admin",
          "type": "address"
        }
      ],
      "name": "removeAdmin",
      "outputs": [],
      "payable": false,
      "stateMutability": "nonpayable",
      "type": "function"
    },
    {
      "constant": true,
      "inputs": [
        {
          "name": "",
          "type": "uint256"
        }
      ],
      "name": "adminsForIndex",
      "outputs": [
        {
          "name": "",
          "type": "address"
        }
      ],
      "payable": false,
      "stateMutability": "view",
      "type": "function"
    },
    {
      "constant": true,
      "inputs": [
        {
          "name": "",
          "type": "address"
        }
      ],
      "name": "admins",
      "outputs": [
        {
          "name": "",
          "type": "bool"
        }
      ],
      "payable": false,
      "stateMutability": "view",
      "type": "function"
    },
    {
      "constant": false,
      "inputs": [
        {
          "name": "admin",
          "type": "address"
        }
      ],
      "name": "removeSuperAdmin",
      "outputs": [],
      "payable": false,
      "stateMutability": "nonpayable",
      "type": "function"
    },
    {
      "constant": false,
      "inputs": [
        {
          "name": "admin",
          "type": "address"
        }
      ],
      "name": "addAdmin",
      "outputs": [],
      "payable": false,
      "stateMutability": "nonpayable",
      "type": "function"
    },
    {
      "constant": false,
      "inputs": [],
      "name": "renounceOwnership",
      "outputs": [],
      "payable": false,
      "stateMutability": "nonpayable",
      "type": "function"
    },
    {
      "constant": true,
      "inputs": [],
      "name": "owner",
      "outputs": [
        {
          "name": "",
          "type": "address"
        }
      ],
      "payable": false,
      "stateMutability": "view",
      "type": "function"
    },
    {
      "constant": true,
      "inputs": [],
      "name": "totalSuperAdminsMapping",
      "outputs": [
        {
          "name": "",
          "type": "uint256"
        }
      ],
      "payable": false,
      "stateMutability": "view",
      "type": "function"
    },
    {
      "constant": true,
      "inputs": [
        {
          "name": "",
          "type": "address"
        }
      ],
      "name": "superAdmins",
      "outputs": [
        {
          "name": "",
          "type": "bool"
        }
      ],
      "payable": false,
      "stateMutability": "view",
      "type": "function"
    },
    {
      "constant": false,
      "inputs": [
        {
          "name": "admin",
          "type": "address"
        }
      ],
      "name": "addSuperAdmin",
      "outputs": [],
      "payable": false,
      "stateMutability": "nonpayable",
      "type": "function"
    },
    {
      "constant": true,
      "inputs": [
        {
          "name": "",
          "type": "uint256"
        }
      ],
      "name": "superAdminsForIndex",
      "outputs": [
        {
          "name": "",
          "type": "address"
        }
      ],
      "payable": false,
      "stateMutability": "view",
      "type": "function"
    },
    {
      "constant": false,
      "inputs": [
        {
          "name": "_newOwner",
          "type": "address"
        }
      ],
      "name": "transferOwnership",
      "outputs": [],
      "payable": false,
      "stateMutability": "nonpayable",
      "type": "function"
    },
    {
      "anonymous": false,
      "inputs": [
        {
          "indexed": true,
          "name": "admin",
          "type": "address"
        }
      ],
      "name": "AddAdmin",
      "type": "event"
    },
    {
      "anonymous": false,
      "inputs": [
        {
          "indexed": true,
          "name": "admin",
          "type": "address"
        }
      ],
      "name": "RemoveAdmin",
      "type": "event"
    },
    {
      "anonymous": false,
      "inputs": [
        {
          "indexed": true,
          "name": "admin",
          "type": "address"
        }
      ],
      "name": "AddSuperAdmin",
      "type": "event"
    },
    {
      "anonymous": false,
      "inputs": [
        {
          "indexed": true,
          "name": "admin",
          "type": "address"
        }
      ],
      "name": "RemoveSuperAdmin",
      "type": "event"
    },
    {
      "anonymous": false,
      "inputs": [
        {
          "indexed": true,
          "name": "previousOwner",
          "type": "address"
        }
      ],
      "name": "OwnershipRenounced",
      "type": "event"
    },
    {
      "anonymous": false,
      "inputs": [
        {
          "indexed": true,
          "name": "previousOwner",
          "type": "address"
        },
        {
          "indexed": true,
          "name": "newOwner",
          "type": "address"
        }
      ],
      "name": "OwnershipTransferred",
      "type": "event"
    },
    {
      "constant": false,
      "inputs": [
        {
          "name": "h",
          "type": "bytes32"
        },
        {
          "name": "v",
          "type": "bool"
        }
      ],
      "name": "setBoolean",
      "outputs": [],
      "payable": false,
      "stateMutability": "nonpayable",
      "type": "function"
    },
    {
      "constant": false,
      "inputs": [
        {
          "name": "h",
          "type": "bytes32"
        },
        {
          "name": "v",
          "type": "int256"
        }
      ],
      "name": "setInt",
      "outputs": [],
      "payable": false,
      "stateMutability": "nonpayable",
      "type": "function"
    },
    {
      "constant": false,
      "inputs": [
        {
          "name": "h",
          "type": "bytes32"
        },
        {
          "name": "v",
          "type": "uint256"
        }
      ],
      "name": "setUint",
      "outputs": [],
      "payable": false,
      "stateMutability": "nonpayable",
      "type": "function"
    },
    {
      "constant": false,
      "inputs": [
        {
          "name": "h",
          "type": "bytes32"
        },
        {
          "name": "v",
          "type": "address"
        }
      ],
      "name": "setAddress",
      "outputs": [],
      "payable": false,
      "stateMutability": "nonpayable",
      "type": "function"
    },
    {
      "constant": false,
      "inputs": [
        {
          "name": "h",
          "type": "bytes32"
        },
        {
          "name": "v",
          "type": "string"
        }
      ],
      "name": "setString",
      "outputs": [],
      "payable": false,
      "stateMutability": "nonpayable",
      "type": "function"
    },
    {
      "constant": false,
      "inputs": [
        {
          "name": "h",
          "type": "bytes32"
        },
        {
          "name": "v",
          "type": "bytes"
        }
      ],
      "name": "setBytes",
      "outputs": [],
      "payable": false,
      "stateMutability": "nonpayable",
      "type": "function"
    },
    {
      "constant": true,
      "inputs": [
        {
          "name": "h",
          "type": "bytes32"
        }
      ],
      "name": "getBoolean",
      "outputs": [
        {
          "name": "",
          "type": "bool"
        }
      ],
      "payable": false,
      "stateMutability": "view",
      "type": "function"
    },
    {
      "constant": true,
      "inputs": [
        {
          "name": "h",
          "type": "bytes32"
        }
      ],
      "name": "getInt",
      "outputs": [
        {
          "name": "",
          "type": "int256"
        }
      ],
      "payable": false,
      "stateMutability": "view",
      "type": "function"
    },
    {
      "constant": true,
      "inputs": [
        {
          "name": "h",
          "type": "bytes32"
        }
      ],
      "name": "getUint",
      "outputs": [
        {
          "name": "",
          "type": "uint256"
        }
      ],
      "payable": false,
      "stateMutability": "view",
      "type": "function"
    },
    {
      "constant": true,
      "inputs": [
        {
          "name": "h",
          "type": "bytes32"
        }
      ],
      "name": "getAddress",
      "outputs": [
        {
          "name": "",
          "type": "address"
        }
      ],
      "payable": false,
      "stateMutability": "view",
      "type": "function"
    },
    {
      "constant": true,
      "inputs": [
        {
          "name": "h",
          "type": "bytes32"
        }
      ],
      "name": "getString",
      "outputs": [
        {
          "name": "",
          "type": "string"
        }
      ],
      "payable": false,
      "stateMutability": "view",
      "type": "function"
    },
    {
      "constant": true,
      "inputs": [
        {
          "name": "h",
          "type": "bytes32"
        }
      ],
      "name": "getBytes",
      "outputs": [
        {
          "name": "",
          "type": "bytes"
        }
      ],
      "payable": false,
      "stateMutability": "view",
      "type": "function"
    }
  ],
  "bytecode": "0x6080604052336000806101000a81548173ffffffffffffffffffffffffffffffffffffffff021916908373ffffffffffffffffffffffffffffffffffffffff160217905550612028806100536000396000f300608060405260043610610149576000357c0100000000000000000000000000000000000000000000000000000000900463ffffffff1680630489882e1461014e5780631785f53c1461017957806321f8a721146101bc5780632e28d0841461022d578063313f2a21146102a45780633848207a146103115780633e49bed01461035a578063429b62e5146103955780634902e4aa146103f05780636e8995501461043357806370480275146104aa578063715018a6146104ed5780638da5cb5b14610504578063986e791a1461055b578063abf7b06314610605578063ad25cb4214610630578063b3292ff01461068b578063bd02d0f5146106ce578063c031a18014610713578063c3894398146107bd578063ca446dd91461082a578063dc97d9621461087b578063e2a4853a146108c0578063f2fde38b146108fb578063f8715b3e1461093e575b600080fd5b34801561015a57600080fd5b5061016361097b565b6040518082815260200191505060405180910390f35b34801561018557600080fd5b506101ba600480360381019080803573ffffffffffffffffffffffffffffffffffffffff169060200190929190505050610988565b005b3480156101c857600080fd5b506101eb6004803603810190808035600019169060200190929190505050610b11565b604051808273ffffffffffffffffffffffffffffffffffffffff1673ffffffffffffffffffffffffffffffffffffffff16815260200191505060405180910390f35b34801561023957600080fd5b506102a26004803603810190808035600019169060200190929190803590602001908201803590602001908080601f0160208091040260200160405190810160405280939291908181526020018383808284378201915050505050509192919290505050610b59565b005b3480156102b057600080fd5b506102cf60048036038101908080359060200190929190505050610c93565b604051808273ffffffffffffffffffffffffffffffffffffffff1673ffffffffffffffffffffffffffffffffffffffff16815260200191505060405180910390f35b34801561031d57600080fd5b506103406004803603810190808035600019169060200190929190505050610cd1565b604051808215151515815260200191505060405180910390f35b34801561036657600080fd5b50610393600480360381019080803560001916906020019092919080359060200190929190505050610d06565b005b3480156103a157600080fd5b506103d6600480360381019080803573ffffffffffffffffffffffffffffffffffffffff169060200190929190505050610e30565b604051808215151515815260200191505060405180910390f35b3480156103fc57600080fd5b50610431600480360381019080803573ffffffffffffffffffffffffffffffffffffffff169060200190929190505050610e50565b005b34801561043f57600080fd5b506104a86004803603810190808035600019169060200190929190803590602001908201803590602001908080601f0160208091040260200160405190810160405280939291908181526020018383808284378201915050505050509192919290505050610fd9565b005b3480156104b657600080fd5b506104eb600480360381019080803573ffffffffffffffffffffffffffffffffffffffff169060200190929190505050611113565b005b3480156104f957600080fd5b506105026113ae565b005b34801561051057600080fd5b506105196114b0565b604051808273ffffffffffffffffffffffffffffffffffffffff1673ffffffffffffffffffffffffffffffffffffffff16815260200191505060405180910390f35b34801561056757600080fd5b5061058a60048036038101908080356000191690602001909291905050506114d5565b6040518080602001828103825283818151815260200191508051906020019080838360005b838110156105ca5780820151818401526020810190506105af565b50505050905090810190601f1680156105f75780820380516001836020036101000a031916815260200191505b509250505060405180910390f35b34801561061157600080fd5b5061061a611595565b6040518082815260200191505060405180910390f35b34801561063c57600080fd5b50610671600480360381019080803573ffffffffffffffffffffffffffffffffffffffff1690602001909291905050506115a2565b604051808215151515815260200191505060405180910390f35b34801561069757600080fd5b506106cc600480360381019080803573ffffffffffffffffffffffffffffffffffffffff1690602001909291905050506115c2565b005b3480156106da57600080fd5b506106fd600480360381019080803560001916906020019092919050505061185d565b6040518082815260200191505060405180910390f35b34801561071f57600080fd5b506107426004803603810190808035600019169060200190929190505050611885565b6040518080602001828103825283818151815260200191508051906020019080838360005b83811015610782578082015181840152602081019050610767565b50505050905090810190601f1680156107af5780820380516001836020036101000a031916815260200191505b509250505060405180910390f35b3480156107c957600080fd5b506107e860048036038101908080359060200190929190505050611945565b604051808273ffffffffffffffffffffffffffffffffffffffff1673ffffffffffffffffffffffffffffffffffffffff16815260200191505060405180910390f35b34801561083657600080fd5b506108796004803603810190808035600019169060200190929190803573ffffffffffffffffffffffffffffffffffffffff169060200190929190505050611983565b005b34801561088757600080fd5b506108aa6004803603810190808035600019169060200190929190505050611ae7565b6040518082815260200191505060405180910390f35b3480156108cc57600080fd5b506108f9600480360381019080803560001916906020019092919080359060200190929190505050611b0f565b005b34801561090757600080fd5b5061093c600480360381019080803573ffffffffffffffffffffffffffffffffffffffff169060200190929190505050611c39565b005b34801561094a57600080fd5b506109796004803603810190808035600019169060200190929190803515159060200190929190505050611ca0565b005b6000600180549050905090565b6000809054906101000a900473ffffffffffffffffffffffffffffffffffffffff1673ffffffffffffffffffffffffffffffffffffffff163373ffffffffffffffffffffffffffffffffffffffff161480610a2c5750600460003373ffffffffffffffffffffffffffffffffffffffff1673ffffffffffffffffffffffffffffffffffffffff16815260200190815260200160002060009054906101000a900460ff165b1515610a3757600080fd5b600073ffffffffffffffffffffffffffffffffffffffff168173ffffffffffffffffffffffffffffffffffffffff1614151515610a7357600080fd5b6000600360008373ffffffffffffffffffffffffffffffffffffffff1673ffffffffffffffffffffffffffffffffffffffff16815260200190815260200160002060006101000a81548160ff0219169083151502179055508073ffffffffffffffffffffffffffffffffffffffff167f753f40ca3312b2408759a67875b367955e7baa221daf08aa3d643d96202ac12b60405160405180910390a250565b600060076004016000836000191660001916815260200190815260200160002060009054906101000a900473ffffffffffffffffffffffffffffffffffffffff169050919050565b6000809054906101000a900473ffffffffffffffffffffffffffffffffffffffff1673ffffffffffffffffffffffffffffffffffffffff163373ffffffffffffffffffffffffffffffffffffffff161480610bfd5750600460003373ffffffffffffffffffffffffffffffffffffffff1673ffffffffffffffffffffffffffffffffffffffff16815260200190815260200160002060009054906101000a900460ff165b80610c515750600360003373ffffffffffffffffffffffffffffffffffffffff1673ffffffffffffffffffffffffffffffffffffffff16815260200190815260200160002060009054906101000a900460ff165b1515610c5c57600080fd5b806007600501600084600019166000191681526020019081526020016000209080519060200190610c8e929190611ed7565b505050565b600181815481101515610ca257fe5b906000526020600020016000915054906101000a900473ffffffffffffffffffffffffffffffffffffffff1681565b600060076000016000836000191660001916815260200190815260200160002060009054906101000a900460ff169050919050565b6000809054906101000a900473ffffffffffffffffffffffffffffffffffffffff1673ffffffffffffffffffffffffffffffffffffffff163373ffffffffffffffffffffffffffffffffffffffff161480610daa5750600460003373ffffffffffffffffffffffffffffffffffffffff1673ffffffffffffffffffffffffffffffffffffffff16815260200190815260200160002060009054906101000a900460ff165b80610dfe5750600360003373ffffffffffffffffffffffffffffffffffffffff1673ffffffffffffffffffffffffffffffffffffffff16815260200190815260200160002060009054906101000a900460ff165b1515610e0957600080fd5b80600760010160008460001916600019168152602001908152602001600020819055505050565b60036020528060005260406000206000915054906101000a900460ff1681565b6000809054906101000a900473ffffffffffffffffffffffffffffffffffffffff1673ffffffffffffffffffffffffffffffffffffffff163373ffffffffffffffffffffffffffffffffffffffff161480610ef45750600460003373ffffffffffffffffffffffffffffffffffffffff1673ffffffffffffffffffffffffffffffffffffffff16815260200190815260200160002060009054906101000a900460ff165b1515610eff57600080fd5b600073ffffffffffffffffffffffffffffffffffffffff168173ffffffffffffffffffffffffffffffffffffffff1614151515610f3b57600080fd5b6000600460008373ffffffffffffffffffffffffffffffffffffffff1673ffffffffffffffffffffffffffffffffffffffff16815260200190815260200160002060006101000a81548160ff0219169083151502179055508073ffffffffffffffffffffffffffffffffffffffff167f1aaaaf7609619e631f47eb3546f9fdd8c61b1af2175988a0ddb9a06680c3b9ed60405160405180910390a250565b6000809054906101000a900473ffffffffffffffffffffffffffffffffffffffff1673ffffffffffffffffffffffffffffffffffffffff163373ffffffffffffffffffffffffffffffffffffffff16148061107d5750600460003373ffffffffffffffffffffffffffffffffffffffff1673ffffffffffffffffffffffffffffffffffffffff16815260200190815260200160002060009054906101000a900460ff165b806110d15750600360003373ffffffffffffffffffffffffffffffffffffffff1673ffffffffffffffffffffffffffffffffffffffff16815260200190815260200160002060009054906101000a900460ff165b15156110dc57600080fd5b80600760030160008460001916600019168152602001908152602001600020908051906020019061110e929190611f57565b505050565b6000809054906101000a900473ffffffffffffffffffffffffffffffffffffffff1673ffffffffffffffffffffffffffffffffffffffff163373ffffffffffffffffffffffffffffffffffffffff1614806111b75750600460003373ffffffffffffffffffffffffffffffffffffffff1673ffffffffffffffffffffffffffffffffffffffff16815260200190815260200160002060009054906101000a900460ff165b15156111c257600080fd5b600073ffffffffffffffffffffffffffffffffffffffff168173ffffffffffffffffffffffffffffffffffffffff16141515156111fe57600080fd5b6001600360008373ffffffffffffffffffffffffffffffffffffffff1673ffffffffffffffffffffffffffffffffffffffff16815260200190815260200160002060006101000a81548160ff021916908315150217905550600560008273ffffffffffffffffffffffffffffffffffffffff1673ffffffffffffffffffffffffffffffffffffffff16815260200190815260200160002060009054906101000a900460ff1615156113685760018190806001815401808255809150509060018203906000526020600020016000909192909190916101000a81548173ffffffffffffffffffffffffffffffffffffffff021916908373ffffffffffffffffffffffffffffffffffffffff160217905550506001600560008373ffffffffffffffffffffffffffffffffffffffff1673ffffffffffffffffffffffffffffffffffffffff16815260200190815260200160002060006101000a81548160ff0219169083151502179055505b8073ffffffffffffffffffffffffffffffffffffffff167fad6de4452a631e641cb59902236607946ce9272b9b981f2f80e8d129cb9084ba60405160405180910390a250565b6000809054906101000a900473ffffffffffffffffffffffffffffffffffffffff1673ffffffffffffffffffffffffffffffffffffffff163373ffffffffffffffffffffffffffffffffffffffff1614151561140957600080fd5b6000809054906101000a900473ffffffffffffffffffffffffffffffffffffffff1673ffffffffffffffffffffffffffffffffffffffff167ff8df31144d9c2f0f6b59d69b8b98abd5459d07f2742c4df920b25aae33c6482060405160405180910390a260008060006101000a81548173ffffffffffffffffffffffffffffffffffffffff021916908373ffffffffffffffffffffffffffffffffffffffff160217905550565b6000809054906101000a900473ffffffffffffffffffffffffffffffffffffffff1681565b60606007600301600083600019166000191681526020019081526020016000208054600181600116156101000203166002900480601f0160208091040260200160405190810160405280929190818152602001828054600181600116156101000203166002900480156115895780601f1061155e57610100808354040283529160200191611589565b820191906000526020600020905b81548152906001019060200180831161156c57829003601f168201915b50505050509050919050565b6000600280549050905090565b60046020528060005260406000206000915054906101000a900460ff1681565b6000809054906101000a900473ffffffffffffffffffffffffffffffffffffffff1673ffffffffffffffffffffffffffffffffffffffff163373ffffffffffffffffffffffffffffffffffffffff1614806116665750600460003373ffffffffffffffffffffffffffffffffffffffff1673ffffffffffffffffffffffffffffffffffffffff16815260200190815260200160002060009054906101000a900460ff165b151561167157600080fd5b600073ffffffffffffffffffffffffffffffffffffffff168173ffffffffffffffffffffffffffffffffffffffff16141515156116ad57600080fd5b6001600460008373ffffffffffffffffffffffffffffffffffffffff1673ffffffffffffffffffffffffffffffffffffffff16815260200190815260200160002060006101000a81548160ff021916908315150217905550600660008273ffffffffffffffffffffffffffffffffffffffff1673ffffffffffffffffffffffffffffffffffffffff16815260200190815260200160002060009054906101000a900460ff1615156118175760028190806001815401808255809150509060018203906000526020600020016000909192909190916101000a81548173ffffffffffffffffffffffffffffffffffffffff021916908373ffffffffffffffffffffffffffffffffffffffff160217905550506001600660008373ffffffffffffffffffffffffffffffffffffffff1673ffffffffffffffffffffffffffffffffffffffff16815260200190815260200160002060006101000a81548160ff0219169083151502179055505b8073ffffffffffffffffffffffffffffffffffffffff167ffba24c034afca607a35e1f221b154b3f8e1f88c7924c8a0a06755b70708c44d860405160405180910390a250565b6000600760020160008360001916600019168152602001908152602001600020549050919050565b60606007600501600083600019166000191681526020019081526020016000208054600181600116156101000203166002900480601f0160208091040260200160405190810160405280929190818152602001828054600181600116156101000203166002900480156119395780601f1061190e57610100808354040283529160200191611939565b820191906000526020600020905b81548152906001019060200180831161191c57829003601f168201915b50505050509050919050565b60028181548110151561195457fe5b906000526020600020016000915054906101000a900473ffffffffffffffffffffffffffffffffffffffff1681565b6000809054906101000a900473ffffffffffffffffffffffffffffffffffffffff1673ffffffffffffffffffffffffffffffffffffffff163373ffffffffffffffffffffffffffffffffffffffff161480611a275750600460003373ffffffffffffffffffffffffffffffffffffffff1673ffffffffffffffffffffffffffffffffffffffff16815260200190815260200160002060009054906101000a900460ff165b80611a7b5750600360003373ffffffffffffffffffffffffffffffffffffffff1673ffffffffffffffffffffffffffffffffffffffff16815260200190815260200160002060009054906101000a900460ff165b1515611a8657600080fd5b8060076004016000846000191660001916815260200190815260200160002060006101000a81548173ffffffffffffffffffffffffffffffffffffffff021916908373ffffffffffffffffffffffffffffffffffffffff1602179055505050565b6000600760010160008360001916600019168152602001908152602001600020549050919050565b6000809054906101000a900473ffffffffffffffffffffffffffffffffffffffff1673ffffffffffffffffffffffffffffffffffffffff163373ffffffffffffffffffffffffffffffffffffffff161480611bb35750600460003373ffffffffffffffffffffffffffffffffffffffff1673ffffffffffffffffffffffffffffffffffffffff16815260200190815260200160002060009054906101000a900460ff165b80611c075750600360003373ffffffffffffffffffffffffffffffffffffffff1673ffffffffffffffffffffffffffffffffffffffff16815260200190815260200160002060009054906101000a900460ff165b1515611c1257600080fd5b80600760020160008460001916600019168152602001908152602001600020819055505050565b6000809054906101000a900473ffffffffffffffffffffffffffffffffffffffff1673ffffffffffffffffffffffffffffffffffffffff163373ffffffffffffffffffffffffffffffffffffffff16141515611c9457600080fd5b611c9d81611ddd565b50565b6000809054906101000a900473ffffffffffffffffffffffffffffffffffffffff1673ffffffffffffffffffffffffffffffffffffffff163373ffffffffffffffffffffffffffffffffffffffff161480611d445750600460003373ffffffffffffffffffffffffffffffffffffffff1673ffffffffffffffffffffffffffffffffffffffff16815260200190815260200160002060009054906101000a900460ff165b80611d985750600360003373ffffffffffffffffffffffffffffffffffffffff1673ffffffffffffffffffffffffffffffffffffffff16815260200190815260200160002060009054906101000a900460ff165b1515611da357600080fd5b8060076000016000846000191660001916815260200190815260200160002060006101000a81548160ff0219169083151502179055505050565b600073ffffffffffffffffffffffffffffffffffffffff168173ffffffffffffffffffffffffffffffffffffffff1614151515611e1957600080fd5b8073ffffffffffffffffffffffffffffffffffffffff166000809054906101000a900473ffffffffffffffffffffffffffffffffffffffff1673ffffffffffffffffffffffffffffffffffffffff167f8be0079c531659141344cd1fd0a4f28419497f9722a3daafe3b4186f6b6457e060405160405180910390a3806000806101000a81548173ffffffffffffffffffffffffffffffffffffffff021916908373ffffffffffffffffffffffffffffffffffffffff16021790555050565b828054600181600116156101000203166002900490600052602060002090601f016020900481019282601f10611f1857805160ff1916838001178555611f46565b82800160010185558215611f46579182015b82811115611f45578251825591602001919060010190611f2a565b5b509050611f539190611fd7565b5090565b828054600181600116156101000203166002900490600052602060002090601f016020900481019282601f10611f9857805160ff1916838001178555611fc6565b82800160010185558215611fc6579182015b82811115611fc5578251825591602001919060010190611faa565b5b509050611fd39190611fd7565b5090565b611ff991905b80821115611ff5576000816000905550600101611fdd565b5090565b905600a165627a7a7230582045d48615c7c3fd06f6a95b72cc457ba03328fa737d94ee2efd5e8f8658161ec80029",
  "source": "pragma solidity ^0.4.24;\n\nimport \"./Administratable.sol\";\n/**\n * @title EternalStorage\n * @dev An Administratable contract that can be used as a storage where the variables\n * are stored in a set of mappings indexed by hash names.\n */\ncontract EternalStorage is Administratable {\n\n  struct Storage {\n    mapping(bytes32 => bool) _bool;\n    mapping(bytes32 => int) _int;\n    mapping(bytes32 => uint256) _uint;\n    mapping(bytes32 => string) _string;\n    mapping(bytes32 => address) _address;\n    mapping(bytes32 => bytes) _bytes;\n  }\n\n  Storage internal s;\n\n  /**\n   * @dev Allows admins to set a value for a boolean variable.\n   * @param h The keccak256 hash of the variable name\n   * @param v The value to be stored\n   */\n  function setBoolean(bytes32 h, bool v) public onlyAdmins {\n    s._bool[h] = v;\n  }\n\n  /**\n   * @dev Allows admins to set a value for a int variable.\n   * @param h The keccak256 hash of the variable name\n   * @param v The value to be stored\n   */\n  function setInt(bytes32 h, int v) public onlyAdmins {\n    s._int[h] = v;\n  }\n\n  /**\n   * @dev Allows admins to set a value for a boolean variable.\n   * @param h The keccak256 hash of the variable name\n   * @param v The value to be stored\n   */\n  function setUint(bytes32 h, uint256 v) public onlyAdmins {\n    s._uint[h] = v;\n  }\n\n  /**\n   * @dev Allows admins to set a value for a address variable.\n   * @param h The keccak256 hash of the variable name\n   * @param v The value to be stored\n   */\n  function setAddress(bytes32 h, address v) public onlyAdmins {\n    s._address[h] = v;\n  }\n\n  /**\n   * @dev Allows admins to set a value for a string variable.\n   * @param h The keccak256 hash of the variable name\n   * @param v The value to be stored\n   */\n  function setString(bytes32 h, string v) public onlyAdmins {\n    s._string[h] = v;\n  }\n\n  /**\n   * @dev Allows the owner to set a value for a bytes variable.\n   * @param h The keccak256 hash of the variable name\n   * @param v The value to be stored\n   */\n  function setBytes(bytes32 h, bytes v) public onlyAdmins {\n    s._bytes[h] = v;\n  }\n\n  /**\n   * @dev Get the value stored of a boolean variable by the hash name\n   * @param h The keccak256 hash of the variable name\n   */\n  function getBoolean(bytes32 h) public view returns (bool){\n    return s._bool[h];\n  }\n\n  /**\n   * @dev Get the value stored of a int variable by the hash name\n   * @param h The keccak256 hash of the variable name\n   */\n  function getInt(bytes32 h) public view returns (int){\n    return s._int[h];\n  }\n\n  /**\n   * @dev Get the value stored of a uint variable by the hash name\n   * @param h The keccak256 hash of the variable name\n   */\n  function getUint(bytes32 h) public view returns (uint256){\n    return s._uint[h];\n  }\n\n  /**\n   * @dev Get the value stored of a address variable by the hash name\n   * @param h The keccak256 hash of the variable name\n   */\n  function getAddress(bytes32 h) public view returns (address){\n    return s._address[h];\n  }\n\n  /**\n   * @dev Get the value stored of a string variable by the hash name\n   * @param h The keccak256 hash of the variable name\n   */\n  function getString(bytes32 h) public view returns (string){\n    return s._string[h];\n  }\n\n  /**\n   * @dev Get the value stored of a bytes variable by the hash name\n   * @param h The keccak256 hash of the variable name\n   */\n  function getBytes(bytes32 h) public view returns (bytes){\n    return s._bytes[h];\n  }\n\n}\n",
  "sourcePath": "/ude/hb/projects/token/smart-contracts/ethereum/contracts/EternalStorage.sol",
  "compiler": {
    "name": "solc",
    "version": "0.4.24+commit.e67f0147.Emscripten.clang"
  },
  "schemaVersion": "2.0.0",
  "updatedAt": "2018-07-21T00:33:17.922Z"
}