{
  "contractName": "TokenLib",
  "abi": [
    {
      "anonymous": false,
      "inputs": [
        {
          "indexed": true,
          "name": "_from",
          "type": "address"
        },
        {
          "indexed": true,
          "name": "_to",
          "type": "address"
        },
        {
          "indexed": false,
          "name": "_value",
          "type": "uint256"
        }
      ],
      "name": "Transfer",
      "type": "event"
    },
    {
      "anonymous": false,
      "inputs": [
        {
          "indexed": true,
          "name": "_owner",
          "type": "address"
        },
        {
          "indexed": true,
          "name": "_spender",
          "type": "address"
        },
        {
          "indexed": false,
          "name": "_value",
          "type": "uint256"
        }
      ],
      "name": "Approval",
      "type": "event"
    },
    {
      "constant": false,
      "inputs": [
        {
          "name": "_storage",
          "type": "address"
        },
        {
          "name": "_to",
          "type": "address"
        },
        {
          "name": "_value",
          "type": "uint256"
        }
      ],
      "name": "transfer",
      "outputs": [
        {
          "name": "",
          "type": "bool"
        }
      ],
      "payable": false,
      "stateMutability": "nonpayable",
      "type": "function"
    },
    {
      "constant": false,
      "inputs": [
        {
          "name": "_storage",
          "type": "address"
        },
        {
          "name": "_to",
          "type": "address"
        },
        {
          "name": "_value",
          "type": "uint256"
        }
      ],
      "name": "mint",
      "outputs": [],
      "payable": false,
      "stateMutability": "nonpayable",
      "type": "function"
    },
    {
      "constant": false,
      "inputs": [
        {
          "name": "_storage",
          "type": "address"
        },
        {
          "name": "_totalSupply",
          "type": "uint256"
        }
      ],
      "name": "setTotalSupply",
      "outputs": [],
      "payable": false,
      "stateMutability": "nonpayable",
      "type": "function"
    },
    {
      "constant": true,
      "inputs": [
        {
          "name": "_storage",
          "type": "address"
        }
      ],
      "name": "totalSupply",
      "outputs": [
        {
          "name": "",
          "type": "uint256"
        }
      ],
      "payable": false,
      "stateMutability": "view",
      "type": "function"
    },
    {
      "constant": true,
      "inputs": [
        {
          "name": "_storage",
          "type": "address"
        },
        {
          "name": "_owner",
          "type": "address"
        }
      ],
      "name": "balanceOf",
      "outputs": [
        {
          "name": "balance",
          "type": "uint256"
        }
      ],
      "payable": false,
      "stateMutability": "view",
      "type": "function"
    },
    {
      "constant": true,
      "inputs": [
        {
          "name": "_storage",
          "type": "address"
        },
        {
          "name": "_owner",
          "type": "address"
        },
        {
          "name": "_spender",
          "type": "address"
        }
      ],
      "name": "getAllowance",
      "outputs": [
        {
          "name": "",
          "type": "uint256"
        }
      ],
      "payable": false,
      "stateMutability": "view",
      "type": "function"
    },
    {
      "constant": false,
      "inputs": [
        {
          "name": "_storage",
          "type": "address"
        },
        {
          "name": "_owner",
          "type": "address"
        },
        {
          "name": "_spender",
          "type": "address"
        },
        {
          "name": "_allowance",
          "type": "uint256"
        }
      ],
      "name": "setAllowance",
      "outputs": [],
      "payable": false,
      "stateMutability": "nonpayable",
      "type": "function"
    },
    {
      "constant": true,
      "inputs": [
        {
          "name": "_storage",
          "type": "address"
        },
        {
          "name": "_owner",
          "type": "address"
        },
        {
          "name": "_spender",
          "type": "address"
        }
      ],
      "name": "allowance",
      "outputs": [
        {
          "name": "",
          "type": "uint256"
        }
      ],
      "payable": false,
      "stateMutability": "view",
      "type": "function"
    },
    {
      "constant": false,
      "inputs": [
        {
          "name": "_storage",
          "type": "address"
        },
        {
          "name": "_from",
          "type": "address"
        },
        {
          "name": "_to",
          "type": "address"
        },
        {
          "name": "_value",
          "type": "uint256"
        }
      ],
      "name": "transferFrom",
      "outputs": [
        {
          "name": "",
          "type": "bool"
        }
      ],
      "payable": false,
      "stateMutability": "nonpayable",
      "type": "function"
    },
    {
      "constant": false,
      "inputs": [
        {
          "name": "_storage",
          "type": "address"
        },
        {
          "name": "_spender",
          "type": "address"
        },
        {
          "name": "_value",
          "type": "uint256"
        }
      ],
      "name": "approve",
      "outputs": [
        {
          "name": "",
          "type": "bool"
        }
      ],
      "payable": false,
      "stateMutability": "nonpayable",
      "type": "function"
    },
    {
      "constant": false,
      "inputs": [
        {
          "name": "_storage",
          "type": "address"
        },
        {
          "name": "_spender",
          "type": "address"
        },
        {
          "name": "_addedValue",
          "type": "uint256"
        }
      ],
      "name": "increaseApproval",
      "outputs": [
        {
          "name": "",
          "type": "bool"
        }
      ],
      "payable": false,
      "stateMutability": "nonpayable",
      "type": "function"
    },
    {
      "constant": false,
      "inputs": [
        {
          "name": "_storage",
          "type": "address"
        },
        {
          "name": "_spender",
          "type": "address"
        },
        {
          "name": "_subtractedValue",
          "type": "uint256"
        }
      ],
      "name": "decreaseApproval",
      "outputs": [
        {
          "name": "",
          "type": "bool"
        }
      ],
      "payable": false,
      "stateMutability": "nonpayable",
      "type": "function"
    }
  ],
  "bytecode": "0x611d20610030600b82828239805160001a6073146000811461002057610022565bfe5b5030600052607381538281f30073000000000000000000000000000000000000000030146080604052600436106100d1576000357c0100000000000000000000000000000000000000000000000000000000900463ffffffff16806315dacbea146100d657806379ba7f391461017b578063927da105146101c8578063a707037314610252578063bcdd6121146102df578063beabacc814610364578063c6c3bbe6146103e9578063e1f21c6714610456578063e4dc2aa4146104db578063e7092b4114610525578063f019c267146105af578063f7888aec14610634575b600080fd5b8180156100e257600080fd5b50610161600480360381019080803573ffffffffffffffffffffffffffffffffffffffff169060200190929190803573ffffffffffffffffffffffffffffffffffffffff169060200190929190803573ffffffffffffffffffffffffffffffffffffffff1690602001909291908035906020019092919050505061069e565b604051808215151515815260200191505060405180910390f35b81801561018757600080fd5b506101c6600480360381019080803573ffffffffffffffffffffffffffffffffffffffff16906020019092919080359060200190929190505050610b19565b005b61023c600480360381019080803573ffffffffffffffffffffffffffffffffffffffff169060200190929190803573ffffffffffffffffffffffffffffffffffffffff169060200190929190803573ffffffffffffffffffffffffffffffffffffffff169060200190929190505050610c55565b6040518082815260200191505060405180910390f35b81801561025e57600080fd5b506102dd600480360381019080803573ffffffffffffffffffffffffffffffffffffffff169060200190929190803573ffffffffffffffffffffffffffffffffffffffff169060200190929190803573ffffffffffffffffffffffffffffffffffffffff16906020019092919080359060200190929190505050610c6b565b005b8180156102eb57600080fd5b5061034a600480360381019080803573ffffffffffffffffffffffffffffffffffffffff169060200190929190803573ffffffffffffffffffffffffffffffffffffffff16906020019092919080359060200190929190505050610e2f565b604051808215151515815260200191505060405180910390f35b81801561037057600080fd5b506103cf600480360381019080803573ffffffffffffffffffffffffffffffffffffffff169060200190929190803573ffffffffffffffffffffffffffffffffffffffff16906020019092919080359060200190929190505050610e61565b604051808215151515815260200191505060405180910390f35b8180156103f557600080fd5b50610454600480360381019080803573ffffffffffffffffffffffffffffffffffffffff169060200190929190803573ffffffffffffffffffffffffffffffffffffffff169060200190929190803590602001909291905050506113e0565b005b81801561046257600080fd5b506104c1600480360381019080803573ffffffffffffffffffffffffffffffffffffffff169060200190929190803573ffffffffffffffffffffffffffffffffffffffff16906020019092919080359060200190929190505050611698565b604051808215151515815260200191505060405180910390f35b61050f600480360381019080803573ffffffffffffffffffffffffffffffffffffffff16906020019092919050505061178c565b6040518082815260200191505060405180910390f35b610599600480360381019080803573ffffffffffffffffffffffffffffffffffffffff169060200190929190803573ffffffffffffffffffffffffffffffffffffffff169060200190929190803573ffffffffffffffffffffffffffffffffffffffff1690602001909291905050506118e8565b6040518082815260200191505060405180910390f35b8180156105bb57600080fd5b5061061a600480360381019080803573ffffffffffffffffffffffffffffffffffffffff169060200190929190803573ffffffffffffffffffffffffffffffffffffffff16906020019092919080359060200190929190505050611acc565b604051808215151515815260200191505060405180910390f35b610688600480360381019080803573ffffffffffffffffffffffffffffffffffffffff169060200190929190803573ffffffffffffffffffffffffffffffffffffffff169060200190929190505050611b1f565b6040518082815260200191505060405180910390f35b600080600080600073ffffffffffffffffffffffffffffffffffffffff168673ffffffffffffffffffffffffffffffffffffffff16141515156106e057600080fd5b3373ffffffffffffffffffffffffffffffffffffffff168773ffffffffffffffffffffffffffffffffffffffff161415151561071b57600080fd5b60008511151561072a57600080fd5b6107348888611b1f565b925084831015151561074557600080fd5b610750888833610c55565b915084821015151561076157600080fd5b61076b8887611b1f565b90508773ffffffffffffffffffffffffffffffffffffffff1663e2a4853a8860405160200180807f62616c616e6365000000000000000000000000000000000000000000000000008152506007018273ffffffffffffffffffffffffffffffffffffffff1673ffffffffffffffffffffffffffffffffffffffff166c010000000000000000000000000281526014019150506040516020818303038152906040526040518082805190602001908083835b602083101515610841578051825260208201915060208101905060208303925061081c565b6001836020036101000a03801982511681845116808217855250505050505090500191505060405180910390206108818887611cbf90919063ffffffff16565b6040518363ffffffff167c010000000000000000000000000000000000000000000000000000000002815260040180836000191660001916815260200182815260200192505050600060405180830381600087803b1580156108e257600080fd5b505af11580156108f6573d6000803e3d6000fd5b505050508773ffffffffffffffffffffffffffffffffffffffff1663e2a4853a8760405160200180807f62616c616e6365000000000000000000000000000000000000000000000000008152506007018273ffffffffffffffffffffffffffffffffffffffff1673ffffffffffffffffffffffffffffffffffffffff166c010000000000000000000000000281526014019150506040516020818303038152906040526040518082805190602001908083835b6020831015156109ce57805182526020820191506020810190506020830392506109a9565b6001836020036101000a0380198251168184511680821785525050505050509050019150506040518091039020610a0e8885611cd890919063ffffffff16565b6040518363ffffffff167c010000000000000000000000000000000000000000000000000000000002815260040180836000191660001916815260200182815260200192505050600060405180830381600087803b158015610a6f57600080fd5b505af1158015610a83573d6000803e3d6000fd5b50505050610aa5888833610aa08987611cbf90919063ffffffff16565b610c6b565b8573ffffffffffffffffffffffffffffffffffffffff168773ffffffffffffffffffffffffffffffffffffffff167fddf252ad1be2c89b69c2b068fc378daa952ba7f163c4a11628f55a4df523b3ef876040518082815260200191505060405180910390a360019350505050949350505050565b8173ffffffffffffffffffffffffffffffffffffffff1663e2a4853a60405160200180807f746f74616c537570706c79000000000000000000000000000000000000000000815250600b0190506040516020818303038152906040526040518082805190602001908083835b602083101515610baa5780518252602082019150602081019050602083039250610b85565b6001836020036101000a0380198251168184511680821785525050505050509050019150506040518091039020836040518363ffffffff167c010000000000000000000000000000000000000000000000000000000002815260040180836000191660001916815260200182815260200192505050600060405180830381600087803b158015610c3957600080fd5b505af1158015610c4d573d6000803e3d6000fd5b505050505050565b6000610c628484846118e8565b90509392505050565b8373ffffffffffffffffffffffffffffffffffffffff1663e2a4853a848460405160200180807f616c6c6f77616e636500000000000000000000000000000000000000000000008152506009018373ffffffffffffffffffffffffffffffffffffffff1673ffffffffffffffffffffffffffffffffffffffff166c010000000000000000000000000281526014018273ffffffffffffffffffffffffffffffffffffffff1673ffffffffffffffffffffffffffffffffffffffff166c01000000000000000000000000028152601401925050506040516020818303038152906040526040518082805190602001908083835b602083101515610d825780518252602082019150602081019050602083039250610d5d565b6001836020036101000a0380198251168184511680821785525050505050509050019150506040518091039020836040518363ffffffff167c010000000000000000000000000000000000000000000000000000000002815260040180836000191660001916815260200182815260200192505050600060405180830381600087803b158015610e1157600080fd5b505af1158015610e25573d6000803e3d6000fd5b5050505050505050565b6000610e588484610e5385610e4589338a6118e8565b611cd890919063ffffffff16565b611698565b90509392505050565b60008060008073ffffffffffffffffffffffffffffffffffffffff168573ffffffffffffffffffffffffffffffffffffffff1614151515610ea157600080fd5b8573ffffffffffffffffffffffffffffffffffffffff1663bd02d0f53360405160200180807f62616c616e6365000000000000000000000000000000000000000000000000008152506007018273ffffffffffffffffffffffffffffffffffffffff1673ffffffffffffffffffffffffffffffffffffffff166c010000000000000000000000000281526014019150506040516020818303038152906040526040518082805190602001908083835b602083101515610f755780518252602082019150602081019050602083039250610f50565b6001836020036101000a03801982511681845116808217855250505050505090500191505060405180910390206040518263ffffffff167c0100000000000000000000000000000000000000000000000000000000028152600401808260001916600019168152602001915050602060405180830381600087803b158015610ffc57600080fd5b505af1158015611010573d6000803e3d6000fd5b505050506040513d602081101561102657600080fd5b8101908080519060200190929190505050915081841115151561104857600080fd5b6110528686611b1f565b90508573ffffffffffffffffffffffffffffffffffffffff1663e2a4853a3360405160200180807f62616c616e6365000000000000000000000000000000000000000000000000008152506007018273ffffffffffffffffffffffffffffffffffffffff1673ffffffffffffffffffffffffffffffffffffffff166c010000000000000000000000000281526014019150506040516020818303038152906040526040518082805190602001908083835b6020831015156111285780518252602082019150602081019050602083039250611103565b6001836020036101000a03801982511681845116808217855250505050505090500191505060405180910390206111688786611cbf90919063ffffffff16565b6040518363ffffffff167c010000000000000000000000000000000000000000000000000000000002815260040180836000191660001916815260200182815260200192505050600060405180830381600087803b1580156111c957600080fd5b505af11580156111dd573d6000803e3d6000fd5b505050508573ffffffffffffffffffffffffffffffffffffffff1663e2a4853a8660405160200180807f62616c616e6365000000000000000000000000000000000000000000000000008152506007018273ffffffffffffffffffffffffffffffffffffffff1673ffffffffffffffffffffffffffffffffffffffff166c010000000000000000000000000281526014019150506040516020818303038152906040526040518082805190602001908083835b6020831015156112b55780518252602082019150602081019050602083039250611290565b6001836020036101000a03801982511681845116808217855250505050505090500191505060405180910390206112f58785611cd890919063ffffffff16565b6040518363ffffffff167c010000000000000000000000000000000000000000000000000000000002815260040180836000191660001916815260200182815260200192505050600060405180830381600087803b15801561135657600080fd5b505af115801561136a573d6000803e3d6000fd5b505050508473ffffffffffffffffffffffffffffffffffffffff163373ffffffffffffffffffffffffffffffffffffffff167fddf252ad1be2c89b69c2b068fc378daa952ba7f163c4a11628f55a4df523b3ef866040518082815260200191505060405180910390a36001925050509392505050565b8273ffffffffffffffffffffffffffffffffffffffff1663e2a4853a8360405160200180807f62616c616e6365000000000000000000000000000000000000000000000000008152506007018273ffffffffffffffffffffffffffffffffffffffff1673ffffffffffffffffffffffffffffffffffffffff166c010000000000000000000000000281526014019150506040516020818303038152906040526040518082805190602001908083835b6020831015156114b4578051825260208201915060208101905060208303925061148f565b6001836020036101000a0380198251168184511680821785525050505050509050019150506040518091039020836040518363ffffffff167c010000000000000000000000000000000000000000000000000000000002815260040180836000191660001916815260200182815260200192505050600060405180830381600087803b15801561154357600080fd5b505af1158015611557573d6000803e3d6000fd5b505050508273ffffffffffffffffffffffffffffffffffffffff1663e2a4853a60405160200180807f746f74616c537570706c79000000000000000000000000000000000000000000815250600b0190506040516020818303038152906040526040518082805190602001908083835b6020831015156115ec57805182526020820191506020810190506020830392506115c7565b6001836020036101000a0380198251168184511680821785525050505050509050019150506040518091039020836040518363ffffffff167c010000000000000000000000000000000000000000000000000000000002815260040180836000191660001916815260200182815260200192505050600060405180830381600087803b15801561167b57600080fd5b505af115801561168f573d6000803e3d6000fd5b50505050505050565b60008073ffffffffffffffffffffffffffffffffffffffff168373ffffffffffffffffffffffffffffffffffffffff16141515156116d557600080fd5b8273ffffffffffffffffffffffffffffffffffffffff163373ffffffffffffffffffffffffffffffffffffffff161415151561171057600080fd5b61171c84338585610c6b565b8273ffffffffffffffffffffffffffffffffffffffff163373ffffffffffffffffffffffffffffffffffffffff167f8c5be1e5ebec7d5bd14f71427d1e84f3dd0314c0f7b2291e5b200ac8c7c3b925846040518082815260200191505060405180910390a3600190509392505050565b60008173ffffffffffffffffffffffffffffffffffffffff1663bd02d0f560405160200180807f746f74616c537570706c79000000000000000000000000000000000000000000815250600b0190506040516020818303038152906040526040518082805190602001908083835b60208310151561181f57805182526020820191506020810190506020830392506117fa565b6001836020036101000a03801982511681845116808217855250505050505090500191505060405180910390206040518263ffffffff167c0100000000000000000000000000000000000000000000000000000000028152600401808260001916600019168152602001915050602060405180830381600087803b1580156118a657600080fd5b505af11580156118ba573d6000803e3d6000fd5b505050506040513d60208110156118d057600080fd5b81019080805190602001909291905050509050919050565b60008373ffffffffffffffffffffffffffffffffffffffff1663bd02d0f5848460405160200180807f616c6c6f77616e636500000000000000000000000000000000000000000000008152506009018373ffffffffffffffffffffffffffffffffffffffff1673ffffffffffffffffffffffffffffffffffffffff166c010000000000000000000000000281526014018273ffffffffffffffffffffffffffffffffffffffff1673ffffffffffffffffffffffffffffffffffffffff166c01000000000000000000000000028152601401925050506040516020818303038152906040526040518082805190602001908083835b602083101515611a0157805182526020820191506020810190506020830392506119dc565b6001836020036101000a03801982511681845116808217855250505050505090500191505060405180910390206040518263ffffffff167c0100000000000000000000000000000000000000000000000000000000028152600401808260001916600019168152602001915050602060405180830381600087803b158015611a8857600080fd5b505af1158015611a9c573d6000803e3d6000fd5b505050506040513d6020811015611ab257600080fd5b810190808051906020019092919050505090509392505050565b600080611ada8533866118e8565b905080831115611af757611af085856000611698565b9150611b17565b611b148585611b0f8685611cbf90919063ffffffff16565b611698565b91505b509392505050565b60008273ffffffffffffffffffffffffffffffffffffffff1663bd02d0f58360405160200180807f62616c616e6365000000000000000000000000000000000000000000000000008152506007018273ffffffffffffffffffffffffffffffffffffffff1673ffffffffffffffffffffffffffffffffffffffff166c010000000000000000000000000281526014019150506040516020818303038152906040526040518082805190602001908083835b602083101515611bf55780518252602082019150602081019050602083039250611bd0565b6001836020036101000a03801982511681845116808217855250505050505090500191505060405180910390206040518263ffffffff167c0100000000000000000000000000000000000000000000000000000000028152600401808260001916600019168152602001915050602060405180830381600087803b158015611c7c57600080fd5b505af1158015611c90573d6000803e3d6000fd5b505050506040513d6020811015611ca657600080fd5b8101908080519060200190929190505050905092915050565b6000828211151515611ccd57fe5b818303905092915050565b60008183019050828110151515611ceb57fe5b809050929150505600a165627a7a72305820c7e892e88b13e1cfb4640b5675112684cc9ec828041ac700c094c8ac8afc1a7b0029",
  "source": "pragma solidity ^0.4.24;\n\nimport \"./EternalStorage.sol\";\nimport \"openzeppelin-solidity/contracts/math/SafeMath.sol\";\n\nlibrary TokenLib {\n  using SafeMath for uint256;\n\n  event Transfer(address indexed _from, address indexed _to, uint256 _value);\n  event Approval(address indexed _owner, address indexed _spender, uint256 _value);\n\n  /* struct TokenStorage { address storage} */\n\n  function transfer(address _storage, address _to, uint256 _value) public returns (bool) {\n    require(_to != address(0));\n    uint256 senderBalance = EternalStorage(_storage).getUint(keccak256(abi.encodePacked('balance', msg.sender)));\n    require(_value <= senderBalance);\n\n    uint256 receiverBalance = balanceOf(_storage, _to);\n    EternalStorage(_storage).setUint(keccak256(abi.encodePacked('balance', msg.sender)), senderBalance.sub(_value));\n    EternalStorage(_storage).setUint(keccak256(abi.encodePacked('balance', _to)), receiverBalance.add(_value));\n    emit Transfer(msg.sender, _to, _value);\n\n    return true;\n  }\n\n  function mint(address _storage, address _to, uint256 _value) public {\n    EternalStorage(_storage).setUint(keccak256(abi.encodePacked('balance', _to)), _value);\n    EternalStorage(_storage).setUint(keccak256(abi.encodePacked('totalSupply')), _value);\n  }\n\n  function setTotalSupply(address _storage, uint256 _totalSupply) public {\n    EternalStorage(_storage).setUint(keccak256(abi.encodePacked('totalSupply')), _totalSupply);\n  }\n\n  function totalSupply(address _storage) public view returns (uint256) {\n    return EternalStorage(_storage).getUint(keccak256(abi.encodePacked('totalSupply')));\n  }\n\n\n  function balanceOf(address _storage, address _owner) public view returns (uint256 balance) {\n    return EternalStorage(_storage).getUint(keccak256(abi.encodePacked('balance', _owner)));\n  }\n\n  function getAllowance(address _storage, address _owner, address _spender) public view returns (uint256) {\n    return EternalStorage(_storage).getUint(keccak256(abi.encodePacked('allowance', _owner, _spender)));\n  }\n\n  function setAllowance(address _storage, address _owner, address _spender, uint256 _allowance) public {\n    EternalStorage(_storage).setUint(keccak256(abi.encodePacked('allowance', _owner, _spender)), _allowance);\n  }\n\n  function allowance(address _storage, address _owner, address _spender) public view  returns (uint256) {\n    return getAllowance(_storage, _owner, _spender);\n  }\n\n  function transferFrom(address _storage, address _from, address _to, uint256 _value) public  returns (bool) {\n    require(_to != address(0));\n    require(_from != msg.sender);\n    require(_value > 0);\n    uint256 senderBalance = balanceOf(_storage, _from);\n    require(senderBalance >= _value);\n\n    uint256 allowanceValue = allowance(_storage, _from, msg.sender);\n    require(allowanceValue >= _value);\n\n    uint256 receiverBalance = balanceOf(_storage, _to);\n    EternalStorage(_storage).setUint(keccak256(abi.encodePacked('balance', _from)), senderBalance.sub(_value));\n    EternalStorage(_storage).setUint(keccak256(abi.encodePacked('balance', _to)), receiverBalance.add(_value));\n\n    setAllowance(_storage, _from, msg.sender, allowanceValue.sub(_value));\n    emit Transfer(_from, _to, _value);\n\n    return true;\n  }\n\n  function approve(address _storage, address _spender, uint256 _value) public returns (bool) {\n    require(_spender != address(0));\n    require(msg.sender != _spender);\n\n    setAllowance(_storage, msg.sender, _spender, _value);\n\n    emit Approval(msg.sender, _spender, _value);\n    return true;\n  }\n\n  function increaseApproval(address _storage, address _spender, uint256 _addedValue) public returns (bool) {\n    return approve(_storage, _spender, getAllowance(_storage, msg.sender, _spender).add(_addedValue));\n  }\n\n  function decreaseApproval(address _storage, address _spender, uint256 _subtractedValue) public returns (bool) {\n    uint256 oldValue = getAllowance(_storage, msg.sender, _spender);\n\n    if (_subtractedValue > oldValue) {\n      return approve(_storage, _spender, 0);\n    } else {\n      return approve(_storage, _spender, oldValue.sub(_subtractedValue));\n    }\n  }\n}\n",
  "sourcePath": "/ude/hb/projects/token/smart-contracts/ethereum/contracts/TokenLib.sol",
  "compiler": {
    "name": "solc",
    "version": "0.4.24+commit.e67f0147.Emscripten.clang"
  },
  "schemaVersion": "2.0.0",
  "updatedAt": "2018-08-17T02:25:36.392Z"
}